:100000000C942A000C9447000C9447000C94470071
:100010000C9447000C9447000C94FD070C94470087
:100020000C9447000C9447000C946F070C94240820
:100030000C9447000C9447000C9447000C94470024
:100040000C9447000C9447000C9447000C94470014
:100050000C94470011241FBECFE5D8E0DEBFCDBF12
:1000600012E0A0E6B0E0E8EEFEE102C005900D92DD
:10007000AC33B107D9F712E0ACE3B2E001C01D9296
:10008000AF34B107E1F70E94990C0C94720F0C94F5
:100090000000EF92FF920F931F937B018C0120E0F1
:1000A00030E040E05FE40E94F50388238CF0C80153
:1000B000B70120E030E040E05FE40E94C1010E940F
:1000C00025049B01AC01205030404040504806C000
:1000D000C801B7010E9425049B01AC01B901CA0106
:1000E0001F910F91FF90EF900895A0E0B0E0EBE733
:1000F000F0E00C943B0FDC012B01FA019C91923053
:1001000008F439C1EB018881823008F433C194309E
:1001100069F4843009F02FC111969C91119789815F
:10012000981709F428C1ACE0B1E025C1843009F486
:1001300021C18230A9F4923009F01DC19A01AD01AC
:1001400088E0EA010990AE01E90109929E0181501F
:10015000C1F7E201898111969C918923818308C1AD
:10016000923009F407C112962D903C901397EB0141
:100170008A819B811496AD90BD90CD90DC901797AD
:10018000EC80FD800E811F819101281B390BB90184
:1001900037FF04C066277727621B730B6032710537
:1001A0000CF061C0121613066CF537014801062EDB
:1001B00004C096948794779467940A94D2F721E0C8
:1001C00030E040E050E004C0220F331F441F551FB1
:1001D0006A95D2F721503040404050402E213F21B7
:1001E00040235123211531054105510521F021E01E
:1001F00030E040E050E079018A01E628F72808293C
:1002000019293CC0232BD1F1260E371E350146019A
:10021000062E04C096948794779467940A94D2F734
:1002200021E030E040E050E004C0220F331F441FC3
:10023000551F6A95D2F721503040404050402A2146
:100240003B214C215D21211531054105510521F04E
:1002500021E030E040E050E059016A01A628B728CB
:10026000C828D9280BC0821593052CF01C01AA249C
:10027000BB24650103C0EE24FF24870111969C91E5
:10028000D20111968C91981709F445C0992339F041
:10029000A80197012A193B094C095D0906C0A6016E
:1002A00095012E193F09400B510B57FD08C01182D3
:1002B0003382228224833583468357831DC081E0A5
:1002C00081833382228288279927DC01821B930B4A
:1002D000A40BB50B84839583A683B7830DC0220F2F
:1002E000331F441F551F24833583468357838281E0
:1002F000938101979383828324813581468157813D
:10030000DA01C9010197A109B1098F5F9F4FAF4F72
:10031000BF4328F30BC0918333822282EA0CFB1C7B
:100320000C1D1D1DE482F5820683178383E0808304
:10033000248135814681578157FF1AC0C901AA27F8
:1003400097FDA095BA2F81709070A070B0705695EF
:10035000479537952795822B932BA42BB52B848318
:100360009583A683B7838281938101969383828349
:10037000DF0101C0D201CD01CDB7DEB7E2E10C94BF
:10038000570FA0E2B0E0E7ECF1E00C94470F69836F
:100390007A838B839C832D833E834F835887E9E048
:1003A000EE2EF12CEC0EFD1ECE010196B7010E943F
:1003B00016068E010F5E1F4FCE010596B8010E94F2
:1003C00016068A8991E089278A8BC701B801AE0198
:1003D000475E5F4F0E9475000E944105A096E6E0CF
:1003E0000C94630FA0E2B0E0E8EFF1E00C94470F4B
:1003F00069837A838B839C832D833E834F835887C5
:10040000F9E0EF2EF12CEC0EFD1ECE010196B701A6
:100410000E9416068E010F5E1F4FCE010596B80191
:100420000E941606C701B801AE01475E5F4F0E94E9
:1004300075000E944105A096E6E00C94630FA0E2CF
:10044000B0E0E5E2F2E00C943B0F69837A838B83A2
:100450009C832D833E834F835887CE010196BE0136
:10046000675F7F4F0E941606CE010596BE016F5E44
:100470007F4F0E9416069985923088F089898230D4
:10048000C8F0943019F4823051F404C0843029F457
:10049000923081F48CE091E0C6C0923049F420E0C3
:1004A0009A858A89981321E02A87CE010996BBC0D4
:1004B000823049F420E09A858A89981321E02A8BBA
:1004C000CE014196B0C02D843E844F8458886D88FB
:1004D0007E888F88988CEE24FF248701AA24BB2471
:1004E000650140E050E060E070E0E0E0F0E0C10174
:1004F00081709070892BE9F0E60CF71C081D191D1E
:100500009A01AB012A0D3B1D4C1D5D1D80E090E062
:10051000A0E0B0E0E614F7040805190520F481E036
:1005200090E0A0E0B0E0BA01A901480F591F6A1F8E
:100530007B1FAA0CBB1CCC1CDD1C97FE08C081E0F5
:1005400090E0A0E0B0E0A82AB92ACA2ADB2A3196B6
:10055000E032F10549F0660C771C881C991C569412
:10056000479437942794C3CFFA85EA892B893C892D
:100570008B859C85280F391F2E5F3F4F17C0CA01FE
:1005800081709070892B61F016950795F794E79428
:1005900080E090E0A0E0B0E8E82AF92A0A2B1B2BC3
:1005A00076956795579547952F5F3F4F77FDE7CF36
:1005B0000CC0440F551F661F771F17FD4160EE0CDE
:1005C000FF1C001F111F21503040403090E05907A0
:1005D00090E0690790E4790760F32B8F3C8FDB0193
:1005E000CA018F779070A070B07080349105A1051A
:1005F000B10561F447FD0AC0E114F10401051105DC
:1006000029F0405C5F4F6F4F7F4F40781A8EFE1786
:1006100011F081E08A8F4D8F5E8F6F8F78A383E01A
:10062000898FCE0149960E944105A096E2E10C9483
:10063000570FA8E1B0E0EFE1F3E00C94430F6983BA
:100640007A838B839C832D833E834F835887B9E0C5
:10065000EB2EF12CEC0EFD1ECE010196B7010E948F
:1006600016068E010F5E1F4FCE010596B8010E943F
:1006700016062985223008F47EC03989323010F4FC
:10068000B8017CC08A859A8989278A87243011F02D
:10069000223031F4231709F06EC06CE071E06EC0B7
:1006A000343039F41D861E861F86188A1C861B86E8
:1006B00004C0323021F484E08987B7015FC02B8504
:1006C0003C858B899C89281B390B3C872B87ED84C3
:1006D000FE840F851889AD88BE88CF88D88CEA142F
:1006E000FB040C051D0540F4EE0CFF1C001F111F40
:1006F000215030403C872B8720E030E040E050E044
:1007000080E090E0A0E0B0E460E070E0EA14FB0478
:100710000C051D0540F0282B392B4A2B5B2BEA18C2
:10072000FB080C091D09B695A79597958795EE0CC2
:10073000FF1C001F111F6F5F7F4F6F31710531F775
:10074000DA01C9018F779070A070B0708034910584
:10075000A105B10561F427FD0AC0E114F10401050A
:10076000110529F0205C3F4F4F4F5F4F20782D87B8
:100770003E874F87588BBE01675F7F4FCB010E943A
:1007800041056896EAE00C945F0FA8E1B0E0EBEC5D
:10079000F3E00C94470F69837A838B839C832D83CA
:1007A0003E834F83588789E0E82EF12CEC0EFD1E26
:1007B000CE010196B7010E9416068E010F5E1F4FF3
:1007C000CE010596B8010E9416068985823040F058
:1007D0008989823028F0C701B8010E948E0601C0C5
:1007E0008FEF6896E6E00C94630FA8E1B0E0EBEFC2
:1007F000F3E00C94470F69837A838B839C832D836A
:100800003E834F83588789E0E82EF12CEC0EFD1EC5
:10081000CE010196B7010E9416068E010F5E1F4F92
:10082000CE010596B8010E9416068985823040F0F7
:100830008989823028F0C701B8010E948E0601C064
:100840008FEF6896E6E00C94630FACE0B0E0EBE26B
:10085000F4E00C944B0F69837A838B839C83CE01E5
:100860000196BE016B5F7F4F0E9416068D8182301C
:1008700061F1823050F1843021F48E81882351F16E
:100880002EC02F81388537FD20C06E812F31310574
:100890001CF06623F9F023C08EE190E0821B930BDD
:1008A00029853A854B855C8504C0569547953795D3
:1008B00027958A95D2F76623B1F0509540953095EB
:1008C00021953F4F4F4F5F4F0EC020E030E040E09A
:1008D00050E009C02FEF3FEF4FEF5FE704C020E08B
:1008E00030E040E050E8B901CA012C96E2E00C94F7
:1008F000670FA8E0B0E0EFE7F4E00C94430F7B0152
:100900008C01611571058105910519F482E08983D7
:1009100060C083E089838EE1C82ED12CDC82CB823B
:10092000ED82FE820F831887C801B7010E94F2048E
:10093000FC013197F7FF3BC0222733272E1B3F0BCB
:1009400057016801022E04C0D694C794B794A794A7
:100950000A94D2F740E050E060E070E081E090E07F
:10096000A0E0B0E004C0880F991FAA1FBB1F2A9502
:10097000D2F70197A109B1098E219F21A023B123AC
:100980000097A105B10521F041E050E060E070E082
:100990004A295B296C297D294D835E836F83788783
:1009A0008EE190E08E1B9F0B9C838B8312C030974F
:1009B00081F00E2E04C0EE0CFF1C001F111F0A94C4
:1009C000D2F7ED82FE820F831887CE1ADF0ADC820F
:1009D000CB821A82CE0101960E9441052896EAE058
:1009E0000C945F0FEF92FF920F931F937B018C018A
:1009F00080E0E81680E0F80681E0080780E018074C
:100A000088F48FEFE816F1040105110531F028F0A4
:100A100088E090E0A0E0B0E017C080E090E0A0E0C7
:100A2000B0E012C080E0E81680E0F80680E0080739
:100A300081E0180728F088E190E0A0E0B0E004C071
:100A400080E190E0A0E0B0E020E230E040E050E063
:100A5000281B390B4A0B5B0B04C016950795F794BE
:100A6000E7948A95D2F7F701EC5EFE4F8081281B50
:100A7000310941095109C9011F910F91FF90EF9070
:100A80000895DF92EF92FF920F931F93FC01E48091
:100A9000F58006811781D1808081823048F480E022
:100AA00090E0A0E1B0E0E82AF92A0A2B1B2BA5C0B0
:100AB000843009F49FC0823021F4EE24FF248701A2
:100AC00005C0E114F1040105110519F4E0E0F0E0BE
:100AD00096C0628173819FEF623879070CF05BC02A
:100AE00022E83FEF261B370B2A3131052CF020E09E
:100AF00030E040E050E02AC0B801A701022E04C057
:100B000076956795579547950A94D2F781E090E0DE
:100B1000A0E0B0E004C0880F991FAA1FBB1F2A9550
:100B2000D2F70197A109B1098E219F21A023B123FA
:100B30000097A105B10521F081E090E0A0E0B0E0D0
:100B40009A01AB01282B392B4A2B5B2BDA01C90107
:100B50008F779070A070B07080349105A105B105B9
:100B600039F427FF09C0205C3F4F4F4F5F4F04C04F
:100B7000215C3F4F4F4F5F4FE0E0F0E02030A0E0BE
:100B80003A07A0E04A07A0E45A0710F0E1E0F0E0DD
:100B900079018A0127C06038710564F5FB01E158CD
:100BA000FF4FD801C7018F779070A070B07080346C
:100BB0009105A105B10539F4E7FE0DC080E490E090
:100BC000A0E0B0E004C08FE390E0A0E0B0E0E80E69
:100BD000F91E0A1F1B1F17FF05C016950795F794EE
:100BE000E794319687E016950795F794E7948A95F0
:100BF000D1F705C0EE24FF248701EFEFF0E06E2F60
:100C0000679566276795902F9F77D794DD24D794B3
:100C10008E2F8695492F462B582F5D29B701CA0183
:100C20001F910F91FF90EF90DF900895FC01DB0181
:100C3000408151812281622F6F7770E0221F22272D
:100C4000221F9381892F880F822B282F30E0991F34
:100C50009927991F11969C93119721153105A9F594
:100C6000411551056105710511F482E037C082E834
:100C70009FEF13969C938E9312979A01AB0167E0B6
:100C8000220F331F441F551F6A95D1F783E08C93C1
:100C90000DC0220F331F441F551F12968D919C913A
:100CA0001397019713969C938E931297203080E0B0
:100CB000380780E0480780E4580758F314962D93CE
:100CC0003D934D935C93179708952F3F310579F429
:100CD000411551056105710519F484E08C9308955F
:100CE00064FF03C081E08C9312C01C9210C02F5788
:100CF000304013963C932E93129783E08C9387E0B9
:100D0000440F551F661F771F8A95D1F7706414969C
:100D10004D935D936D937C93179708951F93DC011A
:100D2000FB019C91923008F447C08081823008F426
:100D300043C0943051F411961C91843099F581810F
:100D4000682F70E0611B71093FC0843021F0923040
:100D500031F48230B9F18181882389F12DC0119657
:100D60001C9111978230F1F081811817D9F41296F5
:100D70002D913C911397828193818217930794F070
:100D800028173907BCF014968D919D910D90BC9158
:100D9000A02D2481358146815781281739074A07BC
:100DA0005B0718F4112341F00AC082179307A407C8
:100DB000B50740F4112319F061E070E005C06FEF52
:100DC0007FEF02C060E070E0CB011F91089588239F
:100DD00019F481B58E7F04C0813049F481B58160FA
:100DE00081BD81B58D7F81BD81B58B7F29C082306A
:100DF00019F481B58E7F04C0833031F481B58160F0
:100E000081BD81B58260EFCF843019F481B58E7FCA
:100E100004C0853031F481B5816081BD81B58D7F9D
:100E20000CC0863019F481B58E7F04C0873049F438
:100E300081B5816081BD81B5826081BD81B58460ED
:100E400081BD81B5886081BD089588E181BD11BCF7
:100E5000089588E18AB986E880BD83E389B9089559
:100E60005D9BFECF8CB908955F9BFECF8CB190E067
:100E700008958BB1807808955F9902C080E008954D
:100E80005F9BFECF8CB1089513BE89B7816089BF87
:100E9000089582BF089583B7887F826083BF0895D5
:100EA00083B7887F83BF089560933C0270933D02AF
:100EB00080933E0290933F02089590934102809365
:100EC0004002089588E083BF89B7826089BF089592
:100ED000909345028093440208958CBF08951F9219
:100EE0000F920FB60F9211242F933F934F935F935E
:100EF0006F937F938F939F93AF93BF93EF93FF93E2
:100F000080914A0290914B02A0914C02B0914D0207
:100F10000196A11DB11D80934A0290934B02A093AC
:100F20004C02B0934D0220913C0230913D02409121
:100F30003E0250913F0282179307A407B50778F04D
:100F400010924A0210924B0210924C0210924D02E3
:100F5000E0914402F0914502309709F00995FF9124
:100F6000EF91BF91AF919F918F917F916F915F9121
:100F70004F913F912F910F900FBE0F901F9018959A
:100F800093B7987F926093BF8CBF08952EE481320F
:100F9000920710F080E29EE49BBD8ABD08952EE486
:100FA0008132920710F080E29EE499BD88BD0895D9
:100FB0001FBC82E48EBD89B7806289BF089589B75E
:100FC000806289BF089589B78F7D89BF089526B54E
:100FD00037B5C9010895882319F0813041F404C060
:100FE0008EB58F7B8EBD08958EB580648EBD0895BD
:100FF000909343028093420208951F920F920FB67E
:101000000F9211242F933F934F935F936F937F938E
:101010008F939F93AF93BF93EF93FF93E09142021F
:10102000F09143020995FF91EF91BF91AF919F918C
:101030008F917F916F915F914F913F912F910F9081
:101040000FBE0F901F9018951F920F920FB60F9220
:1010500011242F933F934F935F936F937F938F93BD
:101060009F93AF93BF93EF93FF938091460290912C
:101070004702A0914802B09149020196A11DB11DFD
:101080008093460290934702A0934802B09349028E
:1010900020913C0230913D0240913E0250913F022E
:1010A00082179307A407B50778F0109246021092B2
:1010B00047021092480210924902E0914002F091DA
:1010C0004102309709F00995FF91EF91BF91AF91DF
:1010D0009F918F917F916F915F914F913F912F9150
:1010E0000F900FBE0F901F90189584E465E041E0CB
:1010F0000E94AF0884E464E041E00E94AF0882E807
:101100008FBD8AE18EBD80E29EE497BD86BD0895C5
:1011100082E463E041E00E94AF0888E683BF89B7BC
:101120008D7F89BF08958FB780688FBF08958FB76F
:101130008F778FBF089584E462E040E00E94AF089B
:1011400084E462E041E00E94380985B78E7F85BF64
:1011500085B7826085BF8BB780648BBF0895683088
:1011600008F071C0823429F1833420F4813409F00D
:101170006AC006C08334B1F1843409F064C04BC046
:10118000413059F42AB381E090E002C0880F991FE2
:101190006A95E2F7282B2ABB08952AB381E090E0F4
:1011A00002C0880F991F6A95E2F7809582238ABB57
:1011B0000895413059F427B381E090E002C0880FD0
:1011C000991F6A95E2F7282B27BB089527B381E082
:1011D00090E002C0880F991F6A95E2F780958223FC
:1011E00087BB0895413059F424B381E090E002C0F8
:1011F000880F991F6A95E2F7282B24BB089524B322
:1012000081E090E002C0880F991F6A95E2F780950F
:10121000822384BB0895413059F421B381E090E0EA
:1012200002C0880F991F6A95E2F7282B21BB089509
:1012300021B381E090E002C0880F991F6A95E2F720
:101240008095822381BB0895823461F0833418F441
:10125000813469F405C0833439F0843441F406C024
:101260006ABB089567BB089564BB089561BB089588
:10127000683008F071C0823429F1833420F481345D
:1012800009F06AC006C08334B1F1843409F064C047
:101290004BC0413059F42BB381E090E002C0880F7D
:1012A000991F6A95E2F7282B2BBB08952BB381E099
:1012B00090E002C0880F991F6A95E2F7809582231B
:1012C0008BBB0895413059F428B381E090E002C00F
:1012D000880F991F6A95E2F7282B28BB089528B339
:1012E00081E090E002C0880F991F6A95E2F780952F
:1012F000822388BB0895413059F425B381E090E002
:1013000002C0880F991F6A95E2F7282B25BB089524
:1013100025B381E090E002C0880F991F6A95E2F73B
:101320008095822385BB0895413059F422B381E032
:1013300090E002C0880F991F6A95E2F7282B22BB24
:10134000089522B381E090E002C0880F991F6A954A
:10135000E2F78095822382BB0895823461F0833462
:1013600018F4813469F405C0833439F0843441F4CD
:1013700006C06BBB089568BB089565BB089562BB4A
:1013800008956830D8F4823461F0833418F48134DD
:10139000A9F405C0833439F0843481F406C089B3DC
:1013A00005C086B303C083B301C080B390E002C020
:1013B000959587956A95E2F7817008958FEF089566
:1013C000823469F0833418F4813429F406C08334FC
:1013D00041F0843441F08FEF089589B3089586B3C6
:1013E000089583B3089580B308953E9A3F983D9839
:1013F00086B1887F866086B935983398379A089584
:1014000097B18770907E892B87B9369A349BFECF2F
:10141000349A24B135B1C901089581E460E040E017
:101420000E94AF0881E460E041E00E94380908951D
:101430002F923F924F925F926F927F928F929F92E4
:10144000AF92BF92CF92DF92EF92FF921F93CF9312
:10145000DF93EC014B0181E06936780720F0E8E981
:10146000FEEF8E0E9F1E688579856815790508F058
:101470005EC0C401861B970BBC0180E090E00E9417
:1014800079042EE03DE242EB5DE30E94190320E087
:1014900030E040E85EE30E941F022B013C01CC24B7
:1014A000DD24760138EC232E312C32C0F501108179
:1014B000412F417088816C810E943809412F4695E7
:1014C000417089816D810E94380916951695412FCA
:1014D00041708A816E810E943809169511708B8146
:1014E0006F81412F0E94380988EE93E0F101319716
:1014F000F1F70197D9F70894A11CB11CF2E2AF16DD
:10150000F2E0BF0699F60894C11CD11CE11CF11C45
:10151000C301B2010E944900C616D706E806F906C3
:1015200008F060C02EE1A22E22E0B22EBFCF6819D3
:10153000790980E090E00E9479042EE03DE242EBE0
:101540005DE30E94190320E030E040E85EE30E9482
:101550001F022B013C01CC24DD24760198EC292EBE
:10156000312C32C0F5011081412F417088816C818E
:101570000E943809412F4695417089816D810E94F2
:10158000380916951695412F41708A816E810E9407
:101590003809169511708B816F81412F0E9438098F
:1015A00088EE93E0F1013197F1F70197D9F70894AC
:1015B000A108B108FDE1AF16F2E0BF0699F6089464
:1015C000C11CD11CE11CF11CC301B2010E944900E5
:1015D000C616D706E806F90628F481E2A82E82E0AE
:1015E000B82EC0CF99868886DF91CF911F91FF904A
:1015F000EF90DF90CF90BF90AF909F908F907F90B3
:101600006F905F904F903F902F900895CF93DF930E
:10161000C4E1D2E088816C8141E00E94AF088881FA
:101620006C8140E00E9438092B9682E0C034D807D4
:1016300089F7DF91CF91089584E46FEF0E94AD099F
:101640000895E2E2F2E0E80FF11D6081609584E424
:101650000E94AD09089584E46FEF0E942409089563
:101660000F931F93182F81E460E040E00E94380937
:1016700081E461E040E00E94380982E4612F0E9429
:10168000AD0981E462E041E00E94380900ED17E015
:10169000C8010197F1F781E462E040E00E94380957
:1016A000C8010197F1F71F910F91089581E00E9401
:1016B000300B80EA9FE00197F1F710924E020895F7
:1016C0001F93162F603188F4882319F0813069F454
:1016D00005C0862F80580E94300B05C0862F80548D
:1016E0000E94300B105F10934E021F9108950F93CC
:1016F0001F93182F81E460E041E00E94380981E4E3
:1017000061E040E00E94380982E4612F0E94AD0947
:1017100081E462E041E00E94380900ED17E0C80171
:101720000197F1F781E462E040E00E943809C801C6
:101730000197F1F780914E028F5F80934E028031C6
:1017400029F481E060E00E94600B08C0803231F42F
:1017500080E060E00E94600B10924E021F910F919A
:101760000895CF92DF92FF920F931F93DF93CF9351
:10177000CDB7DEB72A970FB6F894DEBF0FBECDBF48
:101780009C01009721F480E30E94770B2BC040E07E
:101790006E010894C11CD11CF601E40FF11DC901B2
:1017A0006AE070E00E94270F80834F5FC9016AE002
:1017B00070E00E94270F9B016115710569F7F42EF7
:1017C000FA940F2D112707FD10950C0D1D1D08C053
:1017D000F8018081805D0E94770BFA9401501040DF
:1017E000F7FEF6CF2A960FB6F894DEBF0FBECDBF38
:1017F000CF91DF911F910F91FF90DF90CF900895CF
:101800001F93CF93DF93EC0110E003C00E94770B8E
:101810001F5FFE01E10FF11D80818823B9F7DF9181
:10182000CF911F9108950F931F9382E46FEF0E9451
:10183000240981E460E041E00E94AF0881E461E0B6
:1018400041E00E94AF0881E462E041E00E94AF08FD
:1018500084EF91E028EC30E0F9013197F1F701973E
:10186000D9F788E30E94300B00ED17E0C80101971B
:10187000F1F78CE00E94300BC8010197F1F781E08D
:101880000E94300B80EA9FE00197F1F786E00E940A
:10189000300B1F910F910895FF920F931F93CF93D9
:1018A000DF9300E0C0E4DCE983E46FEF0E94AD0960
:1018B00083E4602F40E00E94380910E094E0F92EA4
:1018C000F10E83E46F2D0E94C1098823D9F4CE0163
:1018D0000197F1F783E46F2D0E94C109882391F4E9
:1018E000E12FF0E0EE0FFF1FEE0FFF1FE00FF11DE5
:1018F000E45DFD4F108183E46F2D0E94C1098823B0
:10190000D1F307C01F5F1430C9F60F5F043061F6D2
:101910001FEF812FDF91CF911F910F91FF900895BD
:1019200083E46FE00E94240983E46FEF0E94AD0915
:1019300008954F925F926F927F928F929F92AF9293
:10194000BF92CF92DF92EF92FF920F931F93DF939C
:10195000CF93CDB7DEB728970FB6F894DEBF0FBE92
:10196000CDBF81E3898382E38A8383E38B8384E32E
:101970008C8381E465E040E00E94AF0881E463E08D
:1019800041E00E94AF0884E467E041E00E94AF08B4
:101990000E94900C0E94130C81E464E040E00E94DD
:1019A000AF0881E464E041E00E9438090E94F50933
:1019B0000E9475080E94290780E690E00E94000CB2
:1019C00081E060E00E94600B8AE690E00E94000CDB
:1019D0000E944C0CF82E2FEF8217D1F30E94560B69
:1019E00087E790E00E94000C81E060E00E94600BBD
:1019F00045E0642E712C6C0E7D1E83014424552419
:101A000039E0832E912C8C0E9D1E81E3F81649F44B
:101A10000E944C0CF80180838F3FD1F355245394DE
:101A20000CC0F2E3FF1649F40E943407F8018083EA
:101A300090E00E943007442443948AE20E94770B8E
:101A40000F5F1F4F0815190501F720E030E0BE01B8
:101A50006B5F7F4FAE014F5F5F4FFB01E20FF31FE4
:101A6000DA01A20FB31F90818C91981711F010E04A
:101A700006C02F5F3F4F2430310579F711E00E94F7
:101A8000560B112309F461C087E890E00E94000C16
:101A900080E197E228EC30E0F9013197F1F7019706
:101AA000D9F70E94560B51C025E0A22EB12CAC0EE6
:101AB000BD1E6E010894C11CD11C98ECE92EF12CBE
:101AC0000E94560B87E790E00E94000C81E060E0E6
:101AD0000E94600B8301552039F00E944C0CF801E4
:101AE00080838F3FD1F309C0442039F00E9434072E
:101AF000F801808390E00E9430078AE20E94770B11
:101B00000F5F1F4F0815190531F720E030E0F50190
:101B1000E20FF31FD601A20FB31F90818C9198178B
:101B200031F42F5F3F4F2430310589F711C00E94F7
:101B3000560B86E990E00E94000C80E197E2F701E5
:101B40003197F1F70197D9F7BBCF112309F4ACCF47
:101B50000E94560B87E890E00E94000C80E197E21B
:101B600028EC30E0F9013197F1F70197D9F70E949D
:101B7000560B88EC882E912C80E062E00E94600B6E
:101B800086EA90E00E94000C81E060E00E94600B19
:101B900085EB90E00E94000C8CED95E00E94C6075A
:101BA00085E00E94000A5C01F2E08D3B9F0720F077
:101BB00084E467E041E003C084E467E040E00E9421
:101BC000380984E00E94000AA0E0B0E0BC01CD0129
:101BD0000E94790420E030E040EA50E40E941F02B5
:101BE00020E030E040E85AE30E941F0220E030E0AD
:101BF00048EC52E40E941F026B017C0120E030E0BF
:101C000040EF51E40E94C503181624F481E463E018
:101C100041E003C081E463E040E00E9438095520C0
:101C200009F486C00E944C0C833391F40E94560B39
:101C300086EC90E00E94000C88EE93E00E94C607BC
:101C400080E197E2F4013197F1F70197D9F76EC07F
:101C5000813319F50E94560B8BEC90E00E94000C2A
:101C600081E463E041E00E94380982ED90E00E9447
:101C7000000C81E060E00E94600BC701B6010E9489
:101C80004900DC01CB010E94B10B80E593ECF4012B
:101C90003197F1F70197D9F749C0823369F589ED9A
:101CA00090E00E94000C84E467E041E00E94380963
:101CB00081EE90E00E94000CC5018D5B9240825441
:101CC000914038F481E060E00E94600B87EE90E084
:101CD00006C081E060E00E94600B89EF90E00E9406
:101CE000000CC5010E94B10B80E593ECF401319723
:101CF000F1F70197D9F71AC08433D1F40E94560B3B
:101D000081E091E00E94000C88EE93E00E94C607FB
:101D100084E467E040E00E94380981E463E040E049
:101D20000E9438090E944C0C8F3F71F30E94560BA1
:101D3000442009F421CF0E943C07182F882309F47E
:101D40001BCF90E00E943007133361F488EE93E0DC
:101D50000E94C60780E395E7F4013197F1F70197F8
:101D6000D9F70ACF113319F50E94560B8BEC90E08E
:101D70000E94000C81E463E041E00E94380982ED9A
:101D800090E00E94000C81E060E00E94600BC701BF
:101D9000B6010E944900DC01CB010E94B10B80E535
:101DA00093ECF4013197F1F70197D9F74DC0123355
:101DB00079F589ED90E00E94000C84E467E041E051
:101DC0000E94380981EE90E00E94000CC5018D5BF5
:101DD00092408254914060F481E060E00E94600B88
:101DE00087EE90E00E94000CC5010E94B10B08C074
:101DF00081E060E00E94600B89EF90E00E94000C9F
:101E000080E593ECF4013197F1F70197D9F71CC005
:101E1000143309F0B1CE0E94560B81E091E00E948C
:101E2000000C0E943C07182F88EE93E00E94C60722
:101E300084E467E040E00E94380981E463E040E028
:101E40000E943809112369F30E94560B95CEAA1BF4
:101E5000BB1B51E107C0AA1FBB1FA617B70710F095
:101E6000A61BB70B881F991F5A95A9F780959095C7
:101E7000BC01CD0108952F923F924F925F926F92D5
:101E80007F928F929F92AF92BF92CF92DF92EF920A
:101E9000FF920F931F93CF93DF93CDB7DEB7CA1B8B
:101EA000DB0B0FB6F894DEBF0FBECDBF09942A88B6
:101EB000398848885F846E847D848C849B84AA845E
:101EC000B984C884DF80EE80FD800C811B81AA81EB
:101ED000B981CE0FD11D0FB6F894DEBF0FBECDBFB6
:081EE000ED010895F894FFCF15
:101EE800312D204B657970616400322D20426C756C
:101EF80065746F6F746800456E7465722050617305
:101F080073776F72643A0041636365737320477235
:101F1800616E7465640057726F6E672050617373E9
:101F2800776F726421004F5054494F4E5320342D1F
:101F380073746F7000312D46414E20322D4C45444C
:101F480020332D445200332D445200312D46414E4A
:101F580020002054454D502000322D4C454420206F
:101F680000204C44522000204441524B2057414EFF
:101F780054204C494748542000204C494748542095
:101F88000053746F707065642E2E2E0000000000E0
:101F98000000000000010202030303030404040418
:101FA80004040404050505050505050505050505DD
:101FB80005050505060606060606060606060606BD
:101FC80006060606060606060606060606060606A9
:101FD800060606060707070707070707070707078D
:101FE8000707070707070707070707070707070779
:101FF8000707070707070707070707070707070769
:102008000707070707070707070707070707070758
:10201800070707070808080808080808080808083C
:102028000808080808080808080808080808080828
:102038000808080808080808080808080808080818
:102048000808080808080808080808080808080808
:1020580008080808080808080808080808080808F8
:1020680008080808080808080808080808080808E8
:1020780008080808080808080808080808080808D8
:1020880008080808080808080808080808080808C8
:1020980008080808444444440001020300000102FF
:1020A80004083F065B4F666D7D077F6F3738392F11
:0C20B8003435362A3132332D63303D2B95
:00000001FF
